{
  "_format": "hh-sol-artifact-1",
  "contractName": "SpendVault",
  "sourceName": "contracts/SpendVault.sol",
  "abi": [
    {
      "inputs": [
        {
          "internalType": "address",
          "name": "_guardianToken",
          "type": "address"
        },
        {
          "internalType": "uint256",
          "name": "_quorum",
          "type": "uint256"
        },
        {
          "internalType": "string",
          "name": "_name",
          "type": "string"
        },
        {
          "internalType": "string[]",
          "name": "_tags",
          "type": "string[]"
        }
      ],
      "stateMutability": "nonpayable",
      "type": "constructor"
    },
    {
      "inputs": [],
      "name": "ECDSAInvalidSignature",
      "type": "error"
    },
    {
      "inputs": [
        {
          "internalType": "uint256",
          "name": "length",
          "type": "uint256"
        }
      ],
      "name": "ECDSAInvalidSignatureLength",
      "type": "error"
    },
    {
      "inputs": [
        {
          "internalType": "bytes32",
          "name": "s",
          "type": "bytes32"
        }
      ],
      "name": "ECDSAInvalidSignatureS",
      "type": "error"
    },
    {
      "inputs": [],
      "name": "InvalidShortString",
      "type": "error"
    },
    {
      "inputs": [
        {
          "internalType": "address",
          "name": "owner",
          "type": "address"
        }
      ],
      "name": "OwnableInvalidOwner",
      "type": "error"
    },
    {
      "inputs": [
        {
          "internalType": "address",
          "name": "account",
          "type": "address"
        }
      ],
      "name": "OwnableUnauthorizedAccount",
      "type": "error"
    },
    {
      "inputs": [],
      "name": "ReentrancyGuardReentrantCall",
      "type": "error"
    },
    {
      "inputs": [
        {
          "internalType": "string",
          "name": "str",
          "type": "string"
        }
      ],
      "name": "StringTooLong",
      "type": "error"
    },
    {
      "anonymous": false,
      "inputs": [
        {
          "indexed": true,
          "internalType": "address",
          "name": "token",
          "type": "address"
        },
        {
          "indexed": true,
          "internalType": "address",
          "name": "from",
          "type": "address"
        },
        {
          "indexed": false,
          "internalType": "uint256",
          "name": "amount",
          "type": "uint256"
        }
      ],
      "name": "Deposited",
      "type": "event"
    },
    {
      "anonymous": false,
      "inputs": [],
      "name": "EIP712DomainChanged",
      "type": "event"
    },
    {
      "anonymous": false,
      "inputs": [
        {
          "indexed": false,
          "internalType": "uint256",
          "name": "unlockTime",
          "type": "uint256"
        }
      ],
      "name": "EmergencyUnlockRequested",
      "type": "event"
    },
    {
      "anonymous": false,
      "inputs": [
        {
          "indexed": true,
          "internalType": "address",
          "name": "token",
          "type": "address"
        },
        {
          "indexed": false,
          "internalType": "uint256",
          "name": "amount",
          "type": "uint256"
        }
      ],
      "name": "EmergencyWithdrawal",
      "type": "event"
    },
    {
      "anonymous": false,
      "inputs": [
        {
          "indexed": false,
          "internalType": "address",
          "name": "oldToken",
          "type": "address"
        },
        {
          "indexed": false,
          "internalType": "address",
          "name": "newToken",
          "type": "address"
        }
      ],
      "name": "GuardianTokenUpdated",
      "type": "event"
    },
    {
      "anonymous": false,
      "inputs": [
        {
          "indexed": false,
          "internalType": "string",
          "name": "newName",
          "type": "string"
        }
      ],
      "name": "NameChanged",
      "type": "event"
    },
    {
      "anonymous": false,
      "inputs": [
        {
          "indexed": true,
          "internalType": "address",
          "name": "previousOwner",
          "type": "address"
        },
        {
          "indexed": true,
          "internalType": "address",
          "name": "newOwner",
          "type": "address"
        }
      ],
      "name": "OwnershipTransferred",
      "type": "event"
    },
    {
      "anonymous": false,
      "inputs": [
        {
          "indexed": false,
          "internalType": "uint256",
          "name": "oldQuorum",
          "type": "uint256"
        },
        {
          "indexed": false,
          "internalType": "uint256",
          "name": "newQuorum",
          "type": "uint256"
        }
      ],
      "name": "QuorumUpdated",
      "type": "event"
    },
    {
      "anonymous": false,
      "inputs": [
        {
          "indexed": false,
          "internalType": "string[]",
          "name": "newTags",
          "type": "string[]"
        }
      ],
      "name": "TagsChanged",
      "type": "event"
    },
    {
      "anonymous": false,
      "inputs": [
        {
          "indexed": true,
          "internalType": "address",
          "name": "token",
          "type": "address"
        },
        {
          "indexed": false,
          "internalType": "uint256",
          "name": "daily",
          "type": "uint256"
        },
        {
          "indexed": false,
          "internalType": "uint256",
          "name": "weekly",
          "type": "uint256"
        },
        {
          "indexed": false,
          "internalType": "uint256",
          "name": "monthly",
          "type": "uint256"
        }
      ],
      "name": "WithdrawalCapsSet",
      "type": "event"
    },
    {
      "anonymous": false,
      "inputs": [],
      "name": "WithdrawalPoliciesCleared",
      "type": "event"
    },
    {
      "anonymous": false,
      "inputs": [
        {
          "indexed": true,
          "internalType": "uint256",
          "name": "policyIdx",
          "type": "uint256"
        },
        {
          "indexed": false,
          "internalType": "uint256",
          "name": "minAmount",
          "type": "uint256"
        },
        {
          "indexed": false,
          "internalType": "uint256",
          "name": "maxAmount",
          "type": "uint256"
        },
        {
          "indexed": false,
          "internalType": "uint256",
          "name": "requiredApprovals",
          "type": "uint256"
        },
        {
          "indexed": false,
          "internalType": "uint256",
          "name": "cooldown",
          "type": "uint256"
        }
      ],
      "name": "WithdrawalPolicySet",
      "type": "event"
    },
    {
      "anonymous": false,
      "inputs": [
        {
          "indexed": true,
          "internalType": "address",
          "name": "token",
          "type": "address"
        },
        {
          "indexed": true,
          "internalType": "address",
          "name": "recipient",
          "type": "address"
        },
        {
          "indexed": false,
          "internalType": "uint256",
          "name": "amount",
          "type": "uint256"
        },
        {
          "indexed": false,
          "internalType": "string",
          "name": "reason",
          "type": "string"
        }
      ],
      "name": "Withdrawn",
      "type": "event"
    },
    {
      "stateMutability": "payable",
      "type": "fallback"
    },
    {
      "inputs": [],
      "name": "TIMELOCK_DURATION",
      "outputs": [
        {
          "internalType": "uint256",
          "name": "",
          "type": "uint256"
        }
      ],
      "stateMutability": "view",
      "type": "function"
    },
    {
      "inputs": [],
      "name": "cancelEmergencyUnlock",
      "outputs": [],
      "stateMutability": "nonpayable",
      "type": "function"
    },
    {
      "inputs": [
        {
          "internalType": "address",
          "name": "token",
          "type": "address"
        },
        {
          "internalType": "uint256",
          "name": "amount",
          "type": "uint256"
        }
      ],
      "name": "deposit",
      "outputs": [],
      "stateMutability": "nonpayable",
      "type": "function"
    },
    {
      "inputs": [],
      "name": "eip712Domain",
      "outputs": [
        {
          "internalType": "bytes1",
          "name": "fields",
          "type": "bytes1"
        },
        {
          "internalType": "string",
          "name": "name",
          "type": "string"
        },
        {
          "internalType": "string",
          "name": "version",
          "type": "string"
        },
        {
          "internalType": "uint256",
          "name": "chainId",
          "type": "uint256"
        },
        {
          "internalType": "address",
          "name": "verifyingContract",
          "type": "address"
        },
        {
          "internalType": "bytes32",
          "name": "salt",
          "type": "bytes32"
        },
        {
          "internalType": "uint256[]",
          "name": "extensions",
          "type": "uint256[]"
        }
      ],
      "stateMutability": "view",
      "type": "function"
    },
    {
      "inputs": [
        {
          "internalType": "address",
          "name": "token",
          "type": "address"
        }
      ],
      "name": "executeEmergencyUnlock",
      "outputs": [],
      "stateMutability": "nonpayable",
      "type": "function"
    },
    {
      "inputs": [],
      "name": "getDomainSeparator",
      "outputs": [
        {
          "internalType": "bytes32",
          "name": "",
          "type": "bytes32"
        }
      ],
      "stateMutability": "view",
      "type": "function"
    },
    {
      "inputs": [],
      "name": "getETHBalance",
      "outputs": [
        {
          "internalType": "uint256",
          "name": "",
          "type": "uint256"
        }
      ],
      "stateMutability": "view",
      "type": "function"
    },
    {
      "inputs": [],
      "name": "getEmergencyUnlockTimeRemaining",
      "outputs": [
        {
          "internalType": "uint256",
          "name": "",
          "type": "uint256"
        }
      ],
      "stateMutability": "view",
      "type": "function"
    },
    {
      "inputs": [
        {
          "internalType": "uint256",
          "name": "amount",
          "type": "uint256"
        }
      ],
      "name": "getPolicy",
      "outputs": [
        {
          "components": [
            {
              "internalType": "uint256",
              "name": "minAmount",
              "type": "uint256"
            },
            {
              "internalType": "uint256",
              "name": "maxAmount",
              "type": "uint256"
            },
            {
              "internalType": "uint256",
              "name": "requiredApprovals",
              "type": "uint256"
            },
            {
              "internalType": "uint256",
              "name": "cooldown",
              "type": "uint256"
            }
          ],
          "internalType": "struct SpendVault.WithdrawalPolicy",
          "name": "",
          "type": "tuple"
        }
      ],
      "stateMutability": "view",
      "type": "function"
    },
    {
      "inputs": [
        {
          "internalType": "uint256",
          "name": "amount",
          "type": "uint256"
        }
      ],
      "name": "getPolicyIndex",
      "outputs": [
        {
          "internalType": "uint256",
          "name": "",
          "type": "uint256"
        }
      ],
      "stateMutability": "view",
      "type": "function"
    },
    {
      "inputs": [
        {
          "internalType": "address",
          "name": "token",
          "type": "address"
        }
      ],
      "name": "getTokenBalance",
      "outputs": [
        {
          "internalType": "uint256",
          "name": "",
          "type": "uint256"
        }
      ],
      "stateMutability": "view",
      "type": "function"
    },
    {
      "inputs": [],
      "name": "guardianToken",
      "outputs": [
        {
          "internalType": "address",
          "name": "",
          "type": "address"
        }
      ],
      "stateMutability": "view",
      "type": "function"
    },
    {
      "inputs": [
        {
          "internalType": "address",
          "name": "",
          "type": "address"
        },
        {
          "internalType": "uint256",
          "name": "",
          "type": "uint256"
        }
      ],
      "name": "lastWithdrawalTime",
      "outputs": [
        {
          "internalType": "uint256",
          "name": "",
          "type": "uint256"
        }
      ],
      "stateMutability": "view",
      "type": "function"
    },
    {
      "inputs": [],
      "name": "name",
      "outputs": [
        {
          "internalType": "string",
          "name": "",
          "type": "string"
        }
      ],
      "stateMutability": "view",
      "type": "function"
    },
    {
      "inputs": [],
      "name": "nonce",
      "outputs": [
        {
          "internalType": "uint256",
          "name": "",
          "type": "uint256"
        }
      ],
      "stateMutability": "view",
      "type": "function"
    },
    {
      "inputs": [],
      "name": "owner",
      "outputs": [
        {
          "internalType": "address",
          "name": "",
          "type": "address"
        }
      ],
      "stateMutability": "view",
      "type": "function"
    },
    {
      "inputs": [],
      "name": "quorum",
      "outputs": [
        {
          "internalType": "uint256",
          "name": "",
          "type": "uint256"
        }
      ],
      "stateMutability": "view",
      "type": "function"
    },
    {
      "inputs": [],
      "name": "renounceOwnership",
      "outputs": [],
      "stateMutability": "nonpayable",
      "type": "function"
    },
    {
      "inputs": [],
      "name": "requestEmergencyUnlock",
      "outputs": [],
      "stateMutability": "nonpayable",
      "type": "function"
    },
    {
      "inputs": [
        {
          "internalType": "string",
          "name": "newName",
          "type": "string"
        }
      ],
      "name": "setName",
      "outputs": [],
      "stateMutability": "nonpayable",
      "type": "function"
    },
    {
      "inputs": [
        {
          "internalType": "uint256",
          "name": "_newQuorum",
          "type": "uint256"
        }
      ],
      "name": "setQuorum",
      "outputs": [],
      "stateMutability": "nonpayable",
      "type": "function"
    },
    {
      "inputs": [
        {
          "internalType": "string[]",
          "name": "newTags",
          "type": "string[]"
        }
      ],
      "name": "setTags",
      "outputs": [],
      "stateMutability": "nonpayable",
      "type": "function"
    },
    {
      "inputs": [
        {
          "internalType": "address",
          "name": "token",
          "type": "address"
        },
        {
          "internalType": "uint256",
          "name": "daily",
          "type": "uint256"
        },
        {
          "internalType": "uint256",
          "name": "weekly",
          "type": "uint256"
        },
        {
          "internalType": "uint256",
          "name": "monthly",
          "type": "uint256"
        }
      ],
      "name": "setWithdrawalCaps",
      "outputs": [],
      "stateMutability": "nonpayable",
      "type": "function"
    },
    {
      "inputs": [
        {
          "components": [
            {
              "internalType": "uint256",
              "name": "minAmount",
              "type": "uint256"
            },
            {
              "internalType": "uint256",
              "name": "maxAmount",
              "type": "uint256"
            },
            {
              "internalType": "uint256",
              "name": "requiredApprovals",
              "type": "uint256"
            },
            {
              "internalType": "uint256",
              "name": "cooldown",
              "type": "uint256"
            }
          ],
          "internalType": "struct SpendVault.WithdrawalPolicy[]",
          "name": "policies",
          "type": "tuple[]"
        }
      ],
      "name": "setWithdrawalPolicies",
      "outputs": [],
      "stateMutability": "nonpayable",
      "type": "function"
    },
    {
      "inputs": [
        {
          "internalType": "uint256",
          "name": "",
          "type": "uint256"
        }
      ],
      "name": "tags",
      "outputs": [
        {
          "internalType": "string",
          "name": "",
          "type": "string"
        }
      ],
      "stateMutability": "view",
      "type": "function"
    },
    {
      "inputs": [
        {
          "internalType": "address",
          "name": "newOwner",
          "type": "address"
        }
      ],
      "name": "transferOwnership",
      "outputs": [],
      "stateMutability": "nonpayable",
      "type": "function"
    },
    {
      "inputs": [],
      "name": "unlockRequestTime",
      "outputs": [
        {
          "internalType": "uint256",
          "name": "",
          "type": "uint256"
        }
      ],
      "stateMutability": "view",
      "type": "function"
    },
    {
      "inputs": [
        {
          "internalType": "address",
          "name": "_newAddress",
          "type": "address"
        }
      ],
      "name": "updateGuardianToken",
      "outputs": [],
      "stateMutability": "nonpayable",
      "type": "function"
    },
    {
      "inputs": [
        {
          "internalType": "address",
          "name": "token",
          "type": "address"
        },
        {
          "internalType": "uint256",
          "name": "amount",
          "type": "uint256"
        },
        {
          "internalType": "address",
          "name": "recipient",
          "type": "address"
        },
        {
          "internalType": "string",
          "name": "reason",
          "type": "string"
        },
        {
          "internalType": "bytes[]",
          "name": "signatures",
          "type": "bytes[]"
        }
      ],
      "name": "withdraw",
      "outputs": [],
      "stateMutability": "nonpayable",
      "type": "function"
    },
    {
      "inputs": [
        {
          "internalType": "address",
          "name": "",
          "type": "address"
        }
      ],
      "name": "withdrawalCaps",
      "outputs": [
        {
          "internalType": "uint256",
          "name": "daily",
          "type": "uint256"
        },
        {
          "internalType": "uint256",
          "name": "weekly",
          "type": "uint256"
        },
        {
          "internalType": "uint256",
          "name": "monthly",
          "type": "uint256"
        }
      ],
      "stateMutability": "view",
      "type": "function"
    },
    {
      "inputs": [
        {
          "internalType": "uint256",
          "name": "",
          "type": "uint256"
        }
      ],
      "name": "withdrawalPolicies",
      "outputs": [
        {
          "internalType": "uint256",
          "name": "minAmount",
          "type": "uint256"
        },
        {
          "internalType": "uint256",
          "name": "maxAmount",
          "type": "uint256"
        },
        {
          "internalType": "uint256",
          "name": "requiredApprovals",
          "type": "uint256"
        },
        {
          "internalType": "uint256",
          "name": "cooldown",
          "type": "uint256"
        }
      ],
      "stateMutability": "view",
      "type": "function"
    },
    {
      "inputs": [],
      "name": "withdrawalPoliciesCount",
      "outputs": [
        {
          "internalType": "uint256",
          "name": "",
          "type": "uint256"
        }
      ],
      "stateMutability": "view",
      "type": "function"
    },
    {
      "inputs": [
        {
          "internalType": "address",
          "name": "",
          "type": "address"
        },
        {
          "internalType": "uint256",
          "name": "",
          "type": "uint256"
        }
      ],
      "name": "withdrawnDaily",
      "outputs": [
        {
          "internalType": "uint256",
          "name": "",
          "type": "uint256"
        }
      ],
      "stateMutability": "view",
      "type": "function"
    },
    {
      "inputs": [
        {
          "internalType": "address",
          "name": "",
          "type": "address"
        },
        {
          "internalType": "uint256",
          "name": "",
          "type": "uint256"
        }
      ],
      "name": "withdrawnMonthly",
      "outputs": [
        {
          "internalType": "uint256",
          "name": "",
          "type": "uint256"
        }
      ],
      "stateMutability": "view",
      "type": "function"
    },
    {
      "inputs": [
        {
          "internalType": "address",
          "name": "",
          "type": "address"
        },
        {
          "internalType": "uint256",
          "name": "",
          "type": "uint256"
        }
      ],
      "name": "withdrawnWeekly",
      "outputs": [
        {
          "internalType": "uint256",
          "name": "",
          "type": "uint256"
        }
      ],
      "stateMutability": "view",
      "type": "function"
    },
    {
      "stateMutability": "payable",
      "type": "receive"
    }
  ],
  "bytecode": "0x6101606040523480156200001257600080fd5b5060405162005d6638038062005d66833981810160405281019062000038919062000897565b6040518060400160405280600a81526020017f5370656e644775617264000000000000000000000000000000000000000000008152506040518060400160405280600181526020017f310000000000000000000000000000000000000000000000000000000000000081525033600073ffffffffffffffffffffffffffffffffffffffff168173ffffffffffffffffffffffffffffffffffffffff16036200011a5760006040517f1e4fbdf700000000000000000000000000000000000000000000000000000000815260040162000111919062000958565b60405180910390fd5b6200012b816200037860201b60201c565b50620001426001836200043c60201b90919060201c565b6101208181525050620001606002826200043c60201b90919060201c565b6101408181525050818051906020012060e08181525050808051906020012061010081815250504660a081815250506200019f6200049460201b60201c565b608081815250503073ffffffffffffffffffffffffffffffffffffffff1660c08173ffffffffffffffffffffffffffffffffffffffff168152505050506001600381905550600073ffffffffffffffffffffffffffffffffffffffff168473ffffffffffffffffffffffffffffffffffffffff160362000256576040517f08c379a00000000000000000000000000000000000000000000000000000000081526004016200024d90620009d6565b60405180910390fd5b600083116200029c576040517f08c379a0000000000000000000000000000000000000000000000000000000008152600401620002939062000a48565b60405180910390fd5b83600660006101000a81548173ffffffffffffffffffffffffffffffffffffffff021916908373ffffffffffffffffffffffffffffffffffffffff160217905550826007819055508160049081620002f5919062000cab565b5060005b81518110156200036d5760058282815181106200031b576200031a62000d92565b5b602002602001015190806001815401808255809150506001900390600052602060002001600090919091909150908162000356919062000cab565b508080620003649062000df0565b915050620002f9565b505050505062000fcd565b60008060009054906101000a900473ffffffffffffffffffffffffffffffffffffffff169050816000806101000a81548173ffffffffffffffffffffffffffffffffffffffff021916908373ffffffffffffffffffffffffffffffffffffffff1602179055508173ffffffffffffffffffffffffffffffffffffffff168173ffffffffffffffffffffffffffffffffffffffff167f8be0079c531659141344cd1fd0a4f28419497f9722a3daafe3b4186f6b6457e060405160405180910390a35050565b600060208351101562000462576200045a83620004f160201b60201c565b90506200048e565b8262000474836200055e60201b60201c565b600001908162000485919062000cab565b5060ff60001b90505b92915050565b60007f8b73c3c69bb8fe3d512ecc4cf759cc79239f7b179b0ffacaa9a75d522b39400f60e051610100514630604051602001620004d695949392919062000e69565b60405160208183030381529060405280519060200120905090565b600080829050601f815111156200054157826040517f305a27a900000000000000000000000000000000000000000000000000000000815260040162000538919062000f07565b60405180910390fd5b8051816200054f9062000f5d565b60001c1760001b915050919050565b6000819050919050565b6000604051905090565b600080fd5b600080fd5b600073ffffffffffffffffffffffffffffffffffffffff82169050919050565b6000620005a9826200057c565b9050919050565b620005bb816200059c565b8114620005c757600080fd5b50565b600081519050620005db81620005b0565b92915050565b6000819050919050565b620005f681620005e1565b81146200060257600080fd5b50565b6000815190506200061681620005eb565b92915050565b600080fd5b600080fd5b6000601f19601f8301169050919050565b7f4e487b7100000000000000000000000000000000000000000000000000000000600052604160045260246000fd5b620006718262000626565b810181811067ffffffffffffffff8211171562000693576200069262000637565b5b80604052505050565b6000620006a862000568565b9050620006b6828262000666565b919050565b600067ffffffffffffffff821115620006d957620006d862000637565b5b620006e48262000626565b9050602081019050919050565b60005b8381101562000711578082015181840152602081019050620006f4565b60008484015250505050565b6000620007346200072e84620006bb565b6200069c565b90508281526020810184848401111562000753576200075262000621565b5b62000760848285620006f1565b509392505050565b600082601f83011262000780576200077f6200061c565b5b8151620007928482602086016200071d565b91505092915050565b600067ffffffffffffffff821115620007b957620007b862000637565b5b602082029050602081019050919050565b600080fd5b6000620007e6620007e0846200079b565b6200069c565b905080838252602082019050602084028301858111156200080c576200080b620007ca565b5b835b818110156200085a57805167ffffffffffffffff8111156200083557620008346200061c565b5b80860162000844898262000768565b855260208501945050506020810190506200080e565b5050509392505050565b600082601f8301126200087c576200087b6200061c565b5b81516200088e848260208601620007cf565b91505092915050565b60008060008060808587031215620008b457620008b362000572565b5b6000620008c487828801620005ca565b9450506020620008d78782880162000605565b935050604085015167ffffffffffffffff811115620008fb57620008fa62000577565b5b620009098782880162000768565b925050606085015167ffffffffffffffff8111156200092d576200092c62000577565b5b6200093b8782880162000864565b91505092959194509250565b62000952816200059c565b82525050565b60006020820190506200096f600083018462000947565b92915050565b600082825260208201905092915050565b7f496e76616c696420677561726469616e20746f6b656e20616464726573730000600082015250565b6000620009be601e8362000975565b9150620009cb8262000986565b602082019050919050565b60006020820190508181036000830152620009f181620009af565b9050919050565b7f51756f72756d206d7573742062652067726561746572207468616e2030000000600082015250565b600062000a30601d8362000975565b915062000a3d82620009f8565b602082019050919050565b6000602082019050818103600083015262000a638162000a21565b9050919050565b600081519050919050565b7f4e487b7100000000000000000000000000000000000000000000000000000000600052602260045260246000fd5b6000600282049050600182168062000abd57607f821691505b60208210810362000ad35762000ad262000a75565b5b50919050565b60008190508160005260206000209050919050565b60006020601f8301049050919050565b600082821b905092915050565b60006008830262000b3d7fffffffffffffffffffffffffffffffffffffffffffffffffffffffffffffffff8262000afe565b62000b49868362000afe565b95508019841693508086168417925050509392505050565b6000819050919050565b600062000b8c62000b8662000b8084620005e1565b62000b61565b620005e1565b9050919050565b6000819050919050565b62000ba88362000b6b565b62000bc062000bb78262000b93565b84845462000b0b565b825550505050565b600090565b62000bd762000bc8565b62000be481848462000b9d565b505050565b5b8181101562000c0c5762000c0060008262000bcd565b60018101905062000bea565b5050565b601f82111562000c5b5762000c258162000ad9565b62000c308462000aee565b8101602085101562000c40578190505b62000c5862000c4f8562000aee565b83018262000be9565b50505b505050565b600082821c905092915050565b600062000c806000198460080262000c60565b1980831691505092915050565b600062000c9b838362000c6d565b9150826002028217905092915050565b62000cb68262000a6a565b67ffffffffffffffff81111562000cd25762000cd162000637565b5b62000cde825462000aa4565b62000ceb82828562000c10565b600060209050601f83116001811462000d23576000841562000d0e578287015190505b62000d1a858262000c8d565b86555062000d8a565b601f19841662000d338662000ad9565b60005b8281101562000d5d5784890151825560018201915060208501945060208101905062000d36565b8683101562000d7d578489015162000d79601f89168262000c6d565b8355505b6001600288020188555050505b505050505050565b7f4e487b7100000000000000000000000000000000000000000000000000000000600052603260045260246000fd5b7f4e487b7100000000000000000000000000000000000000000000000000000000600052601160045260246000fd5b600062000dfd82620005e1565b91507fffffffffffffffffffffffffffffffffffffffffffffffffffffffffffffffff820362000e325762000e3162000dc1565b5b600182019050919050565b6000819050919050565b62000e528162000e3d565b82525050565b62000e6381620005e1565b82525050565b600060a08201905062000e80600083018862000e47565b62000e8f602083018762000e47565b62000e9e604083018662000e47565b62000ead606083018562000e58565b62000ebc608083018462000947565b9695505050505050565b600062000ed38262000a6a565b62000edf818562000975565b935062000ef1818560208601620006f1565b62000efc8162000626565b840191505092915050565b6000602082019050818103600083015262000f23818462000ec6565b905092915050565b600081519050919050565b6000819050602082019050919050565b600062000f54825162000e3d565b80915050919050565b600062000f6a8262000f2b565b8262000f768462000f36565b905062000f838162000f46565b9250602082101562000fc65762000fc17fffffffffffffffffffffffffffffffffffffffffffffffffffffffffffffffff8360200360080262000afe565b831692505b5050919050565b60805160a05160c05160e051610100516101205161014051614d3e62001028600039600061232d015260006122f201526000612c8601526000612c65015260006128d40152600061292a015260006129530152614d3e6000f3fe6080604052600436106102085760003560e01c8063854963ad11610118578063cea96238116100a0578063f0b149f61161006f578063f0b149f614610844578063f2db2fe014610883578063f2fde38b146108ae578063fa180dc9146108d7578063fa92aca41461090257610275565b8063cea9623814610788578063e58f09551461079f578063ed24911d146107dc578063efef17b01461080757610275565b8063affed0e0116100e7578063affed0e0146106a5578063b1fe270d146106d0578063b5b042f91461070d578063c1ba4e5914610736578063c47f00271461075f57610275565b8063854963ad146105ff5780638da5cb5b146106285780639069359514610653578063a918408d1461067c57610275565b80634623c81e1161019b5780635ecd80a11161016a5780635ecd80a11461053a5780636525ac96146105635780636e9472981461058c578063715018a6146105b757806384b0196e146105ce57610275565b80634623c81e1461046957806346f206571461049457806347e7ef24146104d45780635a2b4aee146104fd57610275565b806320822abc116101d757806320822abc14610387578063284b663c146103c45780632b07fce3146103ef5780633aecd0e31461042c57610275565b806306fdde03146102dd578063115b299d14610308578063169e0596146103455780631703a0181461035c57610275565b36610275573373ffffffffffffffffffffffffffffffffffffffff16600073ffffffffffffffffffffffffffffffffffffffff167f8752a472e571a816aea92eec8dae9baf628e840f4929fbcc2d155e6233ff68a73460405161026b9190612fcc565b60405180910390a3005b3373ffffffffffffffffffffffffffffffffffffffff16600073ffffffffffffffffffffffffffffffffffffffff167f8752a472e571a816aea92eec8dae9baf628e840f4929fbcc2d155e6233ff68a7346040516102d39190612fcc565b60405180910390a3005b3480156102e957600080fd5b506102f261092d565b6040516102ff9190613077565b60405180910390f35b34801561031457600080fd5b5061032f600480360381019061032a91906130d9565b6109bb565b60405161033c9190612fcc565b60405180910390f35b34801561035157600080fd5b5061035a610ab4565b005b34801561036857600080fd5b50610371610b0c565b60405161037e9190612fcc565b60405180910390f35b34801561039357600080fd5b506103ae60048036038101906103a991906130d9565b610b12565b6040516103bb9190613077565b60405180910390f35b3480156103d057600080fd5b506103d9610bbe565b6040516103e69190612fcc565b60405180910390f35b3480156103fb57600080fd5b50610416600480360381019061041191906130d9565b610c0b565b604051610423919061316a565b60405180910390f35b34801561043857600080fd5b50610453600480360381019061044e91906131e3565b610c77565b6040516104609190612fcc565b60405180910390f35b34801561047557600080fd5b5061047e610cfa565b60405161048b9190612fcc565b60405180910390f35b3480156104a057600080fd5b506104bb60048036038101906104b691906130d9565b610d01565b6040516104cb9493929190613210565b60405180910390f35b3480156104e057600080fd5b506104fb60048036038101906104f69190613255565b610d41565b005b34801561050957600080fd5b50610524600480360381019061051f9190613255565b610edd565b6040516105319190612fcc565b60405180910390f35b34801561054657600080fd5b50610561600480360381019061055c91906132fa565b610f02565b005b34801561056f57600080fd5b5061058a60048036038101906105859190613347565b611097565b005b34801561059857600080fd5b506105a1611172565b6040516105ae9190612fcc565b60405180910390f35b3480156105c357600080fd5b506105cc61117a565b005b3480156105da57600080fd5b506105e361118e565b6040516105f697969594939291906134c0565b60405180910390f35b34801561060b57600080fd5b5061062660048036038101906106219190613755565b611238565b005b34801561063457600080fd5b5061063d6112f7565b60405161064a919061379e565b60405180910390f35b34801561065f57600080fd5b5061067a600480360381019061067591906131e3565b611320565b005b34801561068857600080fd5b506106a3600480360381019061069e91906131e3565b61160e565b005b3480156106b157600080fd5b506106ba61172a565b6040516106c79190612fcc565b60405180910390f35b3480156106dc57600080fd5b506106f760048036038101906106f29190613255565b611730565b6040516107049190612fcc565b60405180910390f35b34801561071957600080fd5b50610734600480360381019061072f919061393b565b611755565b005b34801561074257600080fd5b5061075d600480360381019061075891906130d9565b611f1d565b005b34801561076b57600080fd5b50610786600480360381019061078191906139ee565b611fb3565b005b34801561079457600080fd5b5061079d612005565b005b3480156107ab57600080fd5b506107c660048036038101906107c19190613255565b61205c565b6040516107d39190612fcc565b60405180910390f35b3480156107e857600080fd5b506107f1612081565b6040516107fe9190613a37565b60405180910390f35b34801561081357600080fd5b5061082e60048036038101906108299190613255565b612090565b60405161083b9190612fcc565b60405180910390f35b34801561085057600080fd5b5061086b600480360381019061086691906131e3565b6120b5565b60405161087a93929190613a52565b60405180910390f35b34801561088f57600080fd5b506108986120df565b6040516108a59190612fcc565b60405180910390f35b3480156108ba57600080fd5b506108d560048036038101906108d091906131e3565b6120e5565b005b3480156108e357600080fd5b506108ec61216b565b6040516108f9919061379e565b60405180910390f35b34801561090e57600080fd5b50610917612191565b6040516109249190612fcc565b60405180910390f35b6004805461093a90613ab8565b80601f016020809104026020016040519081016040528092919081815260200182805461096690613ab8565b80156109b35780601f10610988576101008083540402835291602001916109b3565b820191906000526020600020905b81548152906001019060200180831161099657829003601f168201915b505050505081565b600080600090505b600980549050811015610a73576000600982815481106109e6576109e5613ae9565b5b9060005260206000209060040201604051806080016040529081600082015481526020016001820154815260200160028201548152602001600382015481525050905080600001518410158015610a505750600081602001511480610a4f575080602001518411155b5b15610a5f578192505050610aaf565b508080610a6b90613b47565b9150506109c3565b506040517f08c379a0000000000000000000000000000000000000000000000000000000008152600401610aa690613bdb565b60405180910390fd5b919050565b610abc61219e565b42600f819055507f5de309b5a9606facf964af564a0b19501ebcc13f6c4b005c1e317155c8e5aeb162278d00600f54610af59190613bfb565b604051610b029190612fcc565b60405180910390a1565b60075481565b60058181548110610b2257600080fd5b906000526020600020016000915090508054610b3d90613ab8565b80601f0160208091040260200160405190810160405280929190818152602001828054610b6990613ab8565b8015610bb65780601f10610b8b57610100808354040283529160200191610bb6565b820191906000526020600020905b815481529060010190602001808311610b9957829003601f168201915b505050505081565b600080600f5403610bd25760009050610c08565b600062278d00600f54610be59190613bfb565b9050804210610bf8576000915050610c08565b4281610c049190613c2f565b9150505b90565b610c13612e8e565b6009610c1e836109bb565b81548110610c2f57610c2e613ae9565b5b90600052602060002090600402016040518060800160405290816000820154815260200160018201548152602001600282015481526020016003820154815250509050919050565b60008173ffffffffffffffffffffffffffffffffffffffff166370a08231306040518263ffffffff1660e01b8152600401610cb2919061379e565b602060405180830381865afa158015610ccf573d6000803e3d6000fd5b505050506040513d601f19601f82011682018060405250810190610cf39190613c78565b9050919050565b62278d0081565b60098181548110610d1157600080fd5b90600052602060002090600402016000915090508060000154908060010154908060020154908060030154905084565b600073ffffffffffffffffffffffffffffffffffffffff168273ffffffffffffffffffffffffffffffffffffffff1603610db0576040517f08c379a0000000000000000000000000000000000000000000000000000000008152600401610da790613cf1565b60405180910390fd5b60008111610df3576040517f08c379a0000000000000000000000000000000000000000000000000000000008152600401610dea90613d5d565b60405180910390fd5b8173ffffffffffffffffffffffffffffffffffffffff166323b872dd3330846040518463ffffffff1660e01b8152600401610e3093929190613d7d565b6020604051808303816000875af1158015610e4f573d6000803e3d6000fd5b505050506040513d601f19601f82011682018060405250810190610e739190613dec565b503373ffffffffffffffffffffffffffffffffffffffff168273ffffffffffffffffffffffffffffffffffffffff167f8752a472e571a816aea92eec8dae9baf628e840f4929fbcc2d155e6233ff68a783604051610ed19190612fcc565b60405180910390a35050565b600d602052816000526040600020602052806000526040600020600091509150505481565b610f0a61219e565b60096000610f189190612eb6565b60005b82829050811015611066576000838383818110610f3b57610f3a613ae9565b5b9050608002016040013511610f85576040517f08c379a0000000000000000000000000000000000000000000000000000000008152600401610f7c90613e65565b60405180910390fd5b6009838383818110610f9a57610f99613ae9565b5b90506080020190806001815401808255809150506001900390600052602060002090600402016000909190919091508181610fd59190613fcb565b50506000838383818110610fec57610feb613ae9565b5b9050608002018036038101906110029190614056565b9050817fecc0a584a6b908b67ec153107329aa3420b955313c7559947a53916fcc9e2f0e826000015183602001518460400151856060015160405161104a9493929190613210565b60405180910390a250808061105e90613b47565b915050610f1b565b507f2b425181a02b9b2b44f31ae18cfcec8a46a9ce318676a6fd6d72eb2da82253fa60405160405180910390a15050565b61109f61219e565b604051806060016040528084815260200183815260200182815250600b60008673ffffffffffffffffffffffffffffffffffffffff1673ffffffffffffffffffffffffffffffffffffffff1681526020019081526020016000206000820151816000015560208201518160010155604082015181600201559050508373ffffffffffffffffffffffffffffffffffffffff167fb7d6e2abe6079b026a4e5fab73e0bcf0a6ed43787b5c558ae64bea0f2fe0a26084848460405161116493929190613a52565b60405180910390a250505050565b600047905090565b61118261219e565b61118c6000612225565b565b6000606080600080600060606111a26122e9565b6111aa612324565b46306000801b600067ffffffffffffffff8111156111cb576111ca613544565b5b6040519080825280602002602001820160405280156111f95781602001602082028036833780820191505090505b507f0f00000000000000000000000000000000000000000000000000000000000000959493929190965096509650965096509650965090919293949596565b61124061219e565b6005600061124e9190612eda565b60005b81518110156112bc57600582828151811061126f5761126e613ae9565b5b60200260200101519080600181540180825580915050600190039060005260206000200160009091909190915090816112a891906141f9565b5080806112b490613b47565b915050611251565b507f867e148df38a7a5f3a0d60a1583db535326994f8999faf2cfb7b03f29e6c8c69816040516112ec91906143d7565b60405180910390a150565b60008060009054906101000a900473ffffffffffffffffffffffffffffffffffffffff16905090565b61132861219e565b6000600f541161136d576040517f08c379a000000000000000000000000000000000000000000000000000000000815260040161136490614445565b60405180910390fd5b62278d00600f5461137e9190613bfb565b4210156113c0576040517f08c379a00000000000000000000000000000000000000000000000000000000081526004016113b7906144b1565b60405180910390fd5b60008073ffffffffffffffffffffffffffffffffffffffff168273ffffffffffffffffffffffffffffffffffffffff16036114b15747905060006114026112f7565b73ffffffffffffffffffffffffffffffffffffffff168260405161142590614502565b60006040518083038185875af1925050503d8060008114611462576040519150601f19603f3d011682016040523d82523d6000602084013e611467565b606091505b50509050806114ab576040517f08c379a00000000000000000000000000000000000000000000000000000000081526004016114a290614563565b60405180910390fd5b506115b4565b8173ffffffffffffffffffffffffffffffffffffffff166370a08231306040518263ffffffff1660e01b81526004016114ea919061379e565b602060405180830381865afa158015611507573d6000803e3d6000fd5b505050506040513d601f19601f8201168201806040525081019061152b9190613c78565b90508173ffffffffffffffffffffffffffffffffffffffff1663a9059cbb6115516112f7565b836040518363ffffffff1660e01b815260040161156f929190614583565b6020604051808303816000875af115801561158e573d6000803e3d6000fd5b505050506040513d601f19601f820116820180604052508101906115b29190613dec565b505b6000600f819055508173ffffffffffffffffffffffffffffffffffffffff167f23d6711a1d031134a36921253c75aa59e967d38e369ac625992824315e204f20826040516116029190612fcc565b60405180910390a25050565b61161661219e565b600073ffffffffffffffffffffffffffffffffffffffff168173ffffffffffffffffffffffffffffffffffffffff1603611685576040517f08c379a000000000000000000000000000000000000000000000000000000000815260040161167c906145f8565b60405180910390fd5b6000600660009054906101000a900473ffffffffffffffffffffffffffffffffffffffff16905081600660006101000a81548173ffffffffffffffffffffffffffffffffffffffff021916908373ffffffffffffffffffffffffffffffffffffffff1602179055507f9aefef961602b1942cf82f79483adcf1e98fad30a7d5c1a9521cf540ab5a9cc9818360405161171e929190614618565b60405180910390a15050565b60085481565b600a602052816000526040600020602052806000526040600020600091509150505481565b61175d61235f565b600073ffffffffffffffffffffffffffffffffffffffff168373ffffffffffffffffffffffffffffffffffffffff16036117cc576040517f08c379a00000000000000000000000000000000000000000000000000000000081526004016117c39061468d565b60405180910390fd5b6000841161180f576040517f08c379a000000000000000000000000000000000000000000000000000000000815260040161180690613d5d565b60405180910390fd5b600061181a85610c0b565b9050806040015182511015611864576040517f08c379a000000000000000000000000000000000000000000000000000000000815260040161185b9061471f565b60405180910390fd5b600081606001511115611922576000600a60008673ffffffffffffffffffffffffffffffffffffffff1673ffffffffffffffffffffffffffffffffffffffff16815260200190815260200160002060006118bd886109bb565b81526020019081526020016000205490508160600151816118de9190613bfb565b421015611920576040517f08c379a00000000000000000000000000000000000000000000000000000000081526004016119179061478b565b60405180910390fd5b505b60007fbe0810278239049c0a57c9dc515f0a2f92441ef8be615ea06ef725454c32a5b48787876008548880519060200120604051602001611968969594939291906147ab565b604051602081830303815290604052805190602001209050600061198b826123a5565b90506000845167ffffffffffffffff8111156119aa576119a9613544565b5b6040519080825280602002602001820160405280156119d85781602001602082028036833780820191505090505b5090506000805b8651811015611c0e576000611a17888381518110611a00576119ff613ae9565b5b6020026020010151866123bf90919063ffffffff16565b90506000600660009054906101000a900473ffffffffffffffffffffffffffffffffffffffff1673ffffffffffffffffffffffffffffffffffffffff166370a08231836040518263ffffffff1660e01b8152600401611a76919061379e565b602060405180830381865afa158015611a93573d6000803e3d6000fd5b505050506040513d601f19601f82011682018060405250810190611ab79190613c78565b11611af7576040517f08c379a0000000000000000000000000000000000000000000000000000000008152600401611aee90614858565b60405180910390fd5b60005b83811015611b9d578173ffffffffffffffffffffffffffffffffffffffff16858281518110611b2c57611b2b613ae9565b5b602002602001015173ffffffffffffffffffffffffffffffffffffffff1603611b8a576040517f08c379a0000000000000000000000000000000000000000000000000000000008152600401611b81906148c4565b60405180910390fd5b8080611b9590613b47565b915050611afa565b5080848481518110611bb257611bb1613ae9565b5b602002602001019073ffffffffffffffffffffffffffffffffffffffff16908173ffffffffffffffffffffffffffffffffffffffff16815250508280611bf790613b47565b935050508080611c0690613b47565b9150506119df565b508460400151811015611c56576040517f08c379a0000000000000000000000000000000000000000000000000000000008152600401611c4d90614930565b60405180910390fd5b60008a9050611c65818b6123eb565b60086000815480929190611c7890613b47565b9190505550600073ffffffffffffffffffffffffffffffffffffffff168b73ffffffffffffffffffffffffffffffffffffffff1603611da65789471015611cf4576040517f08c379a0000000000000000000000000000000000000000000000000000000008152600401611ceb9061499c565b60405180910390fd5b60008973ffffffffffffffffffffffffffffffffffffffff168b604051611d1a90614502565b60006040518083038185875af1925050503d8060008114611d57576040519150601f19603f3d011682016040523d82523d6000602084013e611d5c565b606091505b5050905080611da0576040517f08c379a0000000000000000000000000000000000000000000000000000000008152600401611d9790614563565b60405180910390fd5b50611e26565b8a73ffffffffffffffffffffffffffffffffffffffff1663a9059cbb8a8c6040518363ffffffff1660e01b8152600401611de1929190614583565b6020604051808303816000875af1158015611e00573d6000803e3d6000fd5b505050506040513d601f19601f82011682018060405250810190611e249190613dec565b505b611e30818b6126ba565b8873ffffffffffffffffffffffffffffffffffffffff168b73ffffffffffffffffffffffffffffffffffffffff167ff974f1095814c8c60c37a056415df3ca314b6b2e69abae8f25f0e69d7f68c0b28c8b604051611e8f9291906149bc565b60405180910390a3600086606001511115611f08576000611eaf8b6109bb565b905042600a60008c73ffffffffffffffffffffffffffffffffffffffff1673ffffffffffffffffffffffffffffffffffffffff168152602001908152602001600020600083815260200190815260200160002081905550505b505050505050611f166128c6565b5050505050565b611f2561219e565b60008111611f68576040517f08c379a0000000000000000000000000000000000000000000000000000000008152600401611f5f90614a38565b60405180910390fd5b60006007549050816007819055507f6784e9bcb845caaa98267d7b0918f97d3d17f7cb35a05b52010f7eb587a0acb08183604051611fa7929190614a58565b60405180910390a15050565b611fbb61219e565b8060049081611fca91906141f9565b507f4737457377f528cc8afd815f73ecb8b05df80d047dbffc41c17750a4033592bc81604051611ffa9190613077565b60405180910390a150565b61200d61219e565b6000600f5411612052576040517f08c379a000000000000000000000000000000000000000000000000000000000815260040161204990614445565b60405180910390fd5b6000600f81905550565b600c602052816000526040600020602052806000526040600020600091509150505481565b600061208b6128d0565b905090565b600e602052816000526040600020602052806000526040600020600091509150505481565b600b6020528060005260406000206000915090508060000154908060010154908060020154905083565b600f5481565b6120ed61219e565b600073ffffffffffffffffffffffffffffffffffffffff168173ffffffffffffffffffffffffffffffffffffffff160361215f5760006040517f1e4fbdf7000000000000000000000000000000000000000000000000000000008152600401612156919061379e565b60405180910390fd5b61216881612225565b50565b600660009054906101000a900473ffffffffffffffffffffffffffffffffffffffff1681565b6000600980549050905090565b6121a6612987565b73ffffffffffffffffffffffffffffffffffffffff166121c46112f7565b73ffffffffffffffffffffffffffffffffffffffff1614612223576121e7612987565b6040517f118cdaa700000000000000000000000000000000000000000000000000000000815260040161221a919061379e565b60405180910390fd5b565b60008060009054906101000a900473ffffffffffffffffffffffffffffffffffffffff169050816000806101000a81548173ffffffffffffffffffffffffffffffffffffffff021916908373ffffffffffffffffffffffffffffffffffffffff1602179055508173ffffffffffffffffffffffffffffffffffffffff168173ffffffffffffffffffffffffffffffffffffffff167f8be0079c531659141344cd1fd0a4f28419497f9722a3daafe3b4186f6b6457e060405160405180910390a35050565b606061231f60017f000000000000000000000000000000000000000000000000000000000000000061298f90919063ffffffff16565b905090565b606061235a60027f000000000000000000000000000000000000000000000000000000000000000061298f90919063ffffffff16565b905090565b60026003540361239b576040517f3ee5aeb500000000000000000000000000000000000000000000000000000000815260040160405180910390fd5b6002600381905550565b60006123b86123b26128d0565b83612a3f565b9050919050565b6000806000806123cf8686612a80565b9250925092506123df8282612adc565b82935050505092915050565b6000600b60008473ffffffffffffffffffffffffffffffffffffffff1673ffffffffffffffffffffffffffffffffffffffff16815260200190815260200160002060405180606001604052908160008201548152602001600182015481526020016002820154815250509050600062015180426124689190614ab0565b9050600062093a804261247b9190614ab0565b9050600062278d004261248e9190614ab0565b9050600084600001511115612546576000600c60008873ffffffffffffffffffffffffffffffffffffffff1673ffffffffffffffffffffffffffffffffffffffff1681526020019081526020016000206000858152602001908152602001600020549050846000015186826125039190613bfb565b1115612544576040517f08c379a000000000000000000000000000000000000000000000000000000000815260040161253b90614b2d565b60405180910390fd5b505b6000846020015111156125fc576000600d60008873ffffffffffffffffffffffffffffffffffffffff1673ffffffffffffffffffffffffffffffffffffffff1681526020019081526020016000206000848152602001908152602001600020549050846020015186826125b99190613bfb565b11156125fa576040517f08c379a00000000000000000000000000000000000000000000000000000000081526004016125f190614b99565b60405180910390fd5b505b6000846040015111156126b2576000600e60008873ffffffffffffffffffffffffffffffffffffffff1673ffffffffffffffffffffffffffffffffffffffff16815260200190815260200160002060008381526020019081526020016000205490508460400151868261266f9190613bfb565b11156126b0576040517f08c379a00000000000000000000000000000000000000000000000000000000081526004016126a790614c05565b60405180910390fd5b505b505050505050565b6000600b60008473ffffffffffffffffffffffffffffffffffffffff1673ffffffffffffffffffffffffffffffffffffffff16815260200190815260200160002060405180606001604052908160008201548152602001600182015481526020016002820154815250509050600062015180426127379190614ab0565b9050600062093a804261274a9190614ab0565b9050600062278d004261275d9190614ab0565b90506000846000015111156127d45784600c60008873ffffffffffffffffffffffffffffffffffffffff1673ffffffffffffffffffffffffffffffffffffffff168152602001908152602001600020600085815260200190815260200160002060008282546127cc9190613bfb565b925050819055505b6000846020015111156128495784600d60008873ffffffffffffffffffffffffffffffffffffffff1673ffffffffffffffffffffffffffffffffffffffff168152602001908152602001600020600084815260200190815260200160002060008282546128419190613bfb565b925050819055505b6000846040015111156128be5784600e60008873ffffffffffffffffffffffffffffffffffffffff1673ffffffffffffffffffffffffffffffffffffffff168152602001908152602001600020600083815260200190815260200160002060008282546128b69190613bfb565b925050819055505b505050505050565b6001600381905550565b60007f000000000000000000000000000000000000000000000000000000000000000073ffffffffffffffffffffffffffffffffffffffff163073ffffffffffffffffffffffffffffffffffffffff1614801561294c57507f000000000000000000000000000000000000000000000000000000000000000046145b15612979577f00000000000000000000000000000000000000000000000000000000000000009050612984565b612981612c40565b90505b90565b600033905090565b606060ff60001b83146129ac576129a583612cd6565b9050612a39565b8180546129b890613ab8565b80601f01602080910402602001604051908101604052809291908181526020018280546129e490613ab8565b8015612a315780601f10612a0657610100808354040283529160200191612a31565b820191906000526020600020905b815481529060010190602001808311612a1457829003601f168201915b505050505090505b92915050565b60006040517f190100000000000000000000000000000000000000000000000000000000000081528360028201528260228201526042812091505092915050565b60008060006041845103612ac55760008060006020870151925060408701519150606087015160001a9050612ab788828585612d4a565b955095509550505050612ad5565b60006002855160001b9250925092505b9250925092565b60006003811115612af057612aef614c25565b5b826003811115612b0357612b02614c25565b5b0315612c3c5760016003811115612b1d57612b1c614c25565b5b826003811115612b3057612b2f614c25565b5b03612b67576040517ff645eedf00000000000000000000000000000000000000000000000000000000815260040160405180910390fd5b60026003811115612b7b57612b7a614c25565b5b826003811115612b8e57612b8d614c25565b5b03612bd3578060001c6040517ffce698f7000000000000000000000000000000000000000000000000000000008152600401612bca9190612fcc565b60405180910390fd5b600380811115612be657612be5614c25565b5b826003811115612bf957612bf8614c25565b5b03612c3b57806040517fd78bce0c000000000000000000000000000000000000000000000000000000008152600401612c329190613a37565b60405180910390fd5b5b5050565b60007f8b73c3c69bb8fe3d512ecc4cf759cc79239f7b179b0ffacaa9a75d522b39400f7f00000000000000000000000000000000000000000000000000000000000000007f00000000000000000000000000000000000000000000000000000000000000004630604051602001612cbb959493929190614c54565b60405160208183030381529060405280519060200120905090565b60606000612ce383612e3e565b90506000602067ffffffffffffffff811115612d0257612d01613544565b5b6040519080825280601f01601f191660200182016040528015612d345781602001600182028036833780820191505090505b5090508181528360208201528092505050919050565b60008060007f7fffffffffffffffffffffffffffffff5d576e7357a4501ddfe92f46681b20a08460001c1115612d8a576000600385925092509250612e34565b600060018888888860405160008152602001604052604051612daf9493929190614cc3565b6020604051602081039080840390855afa158015612dd1573d6000803e3d6000fd5b505050602060405103519050600073ffffffffffffffffffffffffffffffffffffffff168173ffffffffffffffffffffffffffffffffffffffff1603612e2557600060016000801b93509350935050612e34565b8060008060001b935093509350505b9450945094915050565b60008060ff8360001c169050601f811115612e85576040517fb3512b0c00000000000000000000000000000000000000000000000000000000815260040160405180910390fd5b80915050919050565b6040518060800160405280600081526020016000815260200160008152602001600081525090565b5080546000825560040290600052602060002090810190612ed79190612efb565b50565b5080546000825590600052602060002090810190612ef89190612f32565b50565b5b80821115612f2e5760008082016000905560018201600090556002820160009055600382016000905550600401612efc565b5090565b5b80821115612f525760008181612f499190612f56565b50600101612f33565b5090565b508054612f6290613ab8565b6000825580601f10612f745750612f93565b601f016020900490600052602060002090810190612f929190612f96565b5b50565b5b80821115612faf576000816000905550600101612f97565b5090565b6000819050919050565b612fc681612fb3565b82525050565b6000602082019050612fe16000830184612fbd565b92915050565b600081519050919050565b600082825260208201905092915050565b60005b83811015613021578082015181840152602081019050613006565b60008484015250505050565b6000601f19601f8301169050919050565b600061304982612fe7565b6130538185612ff2565b9350613063818560208601613003565b61306c8161302d565b840191505092915050565b60006020820190508181036000830152613091818461303e565b905092915050565b6000604051905090565b600080fd5b600080fd5b6130b681612fb3565b81146130c157600080fd5b50565b6000813590506130d3816130ad565b92915050565b6000602082840312156130ef576130ee6130a3565b5b60006130fd848285016130c4565b91505092915050565b61310f81612fb3565b82525050565b60808201600082015161312b6000850182613106565b50602082015161313e6020850182613106565b5060408201516131516040850182613106565b5060608201516131646060850182613106565b50505050565b600060808201905061317f6000830184613115565b92915050565b600073ffffffffffffffffffffffffffffffffffffffff82169050919050565b60006131b082613185565b9050919050565b6131c0816131a5565b81146131cb57600080fd5b50565b6000813590506131dd816131b7565b92915050565b6000602082840312156131f9576131f86130a3565b5b6000613207848285016131ce565b91505092915050565b60006080820190506132256000830187612fbd565b6132326020830186612fbd565b61323f6040830185612fbd565b61324c6060830184612fbd565b95945050505050565b6000806040838503121561326c5761326b6130a3565b5b600061327a858286016131ce565b925050602061328b858286016130c4565b9150509250929050565b600080fd5b600080fd5b600080fd5b60008083601f8401126132ba576132b9613295565b5b8235905067ffffffffffffffff8111156132d7576132d661329a565b5b6020830191508360808202830111156132f3576132f261329f565b5b9250929050565b60008060208385031215613311576133106130a3565b5b600083013567ffffffffffffffff81111561332f5761332e6130a8565b5b61333b858286016132a4565b92509250509250929050565b60008060008060808587031215613361576133606130a3565b5b600061336f878288016131ce565b9450506020613380878288016130c4565b9350506040613391878288016130c4565b92505060606133a2878288016130c4565b91505092959194509250565b60007fff0000000000000000000000000000000000000000000000000000000000000082169050919050565b6133e3816133ae565b82525050565b6133f2816131a5565b82525050565b6000819050919050565b61340b816133f8565b82525050565b600081519050919050565b600082825260208201905092915050565b6000819050602082019050919050565b60006134498383613106565b60208301905092915050565b6000602082019050919050565b600061346d82613411565b613477818561341c565b93506134828361342d565b8060005b838110156134b357815161349a888261343d565b97506134a583613455565b925050600181019050613486565b5085935050505092915050565b600060e0820190506134d5600083018a6133da565b81810360208301526134e7818961303e565b905081810360408301526134fb818861303e565b905061350a6060830187612fbd565b61351760808301866133e9565b61352460a0830185613402565b81810360c08301526135368184613462565b905098975050505050505050565b7f4e487b7100000000000000000000000000000000000000000000000000000000600052604160045260246000fd5b61357c8261302d565b810181811067ffffffffffffffff8211171561359b5761359a613544565b5b80604052505050565b60006135ae613099565b90506135ba8282613573565b919050565b600067ffffffffffffffff8211156135da576135d9613544565b5b602082029050602081019050919050565b600080fd5b600067ffffffffffffffff82111561360b5761360a613544565b5b6136148261302d565b9050602081019050919050565b82818337600083830152505050565b600061364361363e846135f0565b6135a4565b90508281526020810184848401111561365f5761365e6135eb565b5b61366a848285613621565b509392505050565b600082601f83011261368757613686613295565b5b8135613697848260208601613630565b91505092915050565b60006136b36136ae846135bf565b6135a4565b905080838252602082019050602084028301858111156136d6576136d561329f565b5b835b8181101561371d57803567ffffffffffffffff8111156136fb576136fa613295565b5b8086016137088982613672565b855260208501945050506020810190506136d8565b5050509392505050565b600082601f83011261373c5761373b613295565b5b813561374c8482602086016136a0565b91505092915050565b60006020828403121561376b5761376a6130a3565b5b600082013567ffffffffffffffff811115613789576137886130a8565b5b61379584828501613727565b91505092915050565b60006020820190506137b360008301846133e9565b92915050565b600067ffffffffffffffff8211156137d4576137d3613544565b5b602082029050602081019050919050565b600067ffffffffffffffff821115613800576137ff613544565b5b6138098261302d565b9050602081019050919050565b6000613829613824846137e5565b6135a4565b905082815260208101848484011115613845576138446135eb565b5b613850848285613621565b509392505050565b600082601f83011261386d5761386c613295565b5b813561387d848260208601613816565b91505092915050565b6000613899613894846137b9565b6135a4565b905080838252602082019050602084028301858111156138bc576138bb61329f565b5b835b8181101561390357803567ffffffffffffffff8111156138e1576138e0613295565b5b8086016138ee8982613858565b855260208501945050506020810190506138be565b5050509392505050565b600082601f83011261392257613921613295565b5b8135613932848260208601613886565b91505092915050565b600080600080600060a08688031215613957576139566130a3565b5b6000613965888289016131ce565b9550506020613976888289016130c4565b9450506040613987888289016131ce565b935050606086013567ffffffffffffffff8111156139a8576139a76130a8565b5b6139b488828901613672565b925050608086013567ffffffffffffffff8111156139d5576139d46130a8565b5b6139e18882890161390d565b9150509295509295909350565b600060208284031215613a0457613a036130a3565b5b600082013567ffffffffffffffff811115613a2257613a216130a8565b5b613a2e84828501613672565b91505092915050565b6000602082019050613a4c6000830184613402565b92915050565b6000606082019050613a676000830186612fbd565b613a746020830185612fbd565b613a816040830184612fbd565b949350505050565b7f4e487b7100000000000000000000000000000000000000000000000000000000600052602260045260246000fd5b60006002820490506001821680613ad057607f821691505b602082108103613ae357613ae2613a89565b5b50919050565b7f4e487b7100000000000000000000000000000000000000000000000000000000600052603260045260246000fd5b7f4e487b7100000000000000000000000000000000000000000000000000000000600052601160045260246000fd5b6000613b5282612fb3565b91507fffffffffffffffffffffffffffffffffffffffffffffffffffffffffffffffff8203613b8457613b83613b18565b5b600182019050919050565b7f4e6f20706f6c69637920666f7220616d6f756e74000000000000000000000000600082015250565b6000613bc5601483612ff2565b9150613bd082613b8f565b602082019050919050565b60006020820190508181036000830152613bf481613bb8565b9050919050565b6000613c0682612fb3565b9150613c1183612fb3565b9250828201905080821115613c2957613c28613b18565b5b92915050565b6000613c3a82612fb3565b9150613c4583612fb3565b9250828203905081811115613c5d57613c5c613b18565b5b92915050565b600081519050613c72816130ad565b92915050565b600060208284031215613c8e57613c8d6130a3565b5b6000613c9c84828501613c63565b91505092915050565b7f496e76616c696420746f6b656e20616464726573730000000000000000000000600082015250565b6000613cdb601583612ff2565b9150613ce682613ca5565b602082019050919050565b60006020820190508181036000830152613d0a81613cce565b9050919050565b7f416d6f756e74206d7573742062652067726561746572207468616e2030000000600082015250565b6000613d47601d83612ff2565b9150613d5282613d11565b602082019050919050565b60006020820190508181036000830152613d7681613d3a565b9050919050565b6000606082019050613d9260008301866133e9565b613d9f60208301856133e9565b613dac6040830184612fbd565b949350505050565b60008115159050919050565b613dc981613db4565b8114613dd457600080fd5b50565b600081519050613de681613dc0565b92915050565b600060208284031215613e0257613e016130a3565b5b6000613e1084828501613dd7565b91505092915050565b7f417070726f76616c73206d757374206265203e20300000000000000000000000600082015250565b6000613e4f601583612ff2565b9150613e5a82613e19565b602082019050919050565b60006020820190508181036000830152613e7e81613e42565b9050919050565b60008135613e92816130ad565b80915050919050565b60008160001b9050919050565b60007fffffffffffffffffffffffffffffffffffffffffffffffffffffffffffffffff613ed484613e9b565b9350801983169250808416831791505092915050565b6000819050919050565b6000613f0f613f0a613f0584612fb3565b613eea565b612fb3565b9050919050565b6000819050919050565b613f2982613ef4565b613f3c613f3582613f16565b8354613ea8565b8255505050565b600081016000830180613f5581613e85565b9050613f618184613f20565b505050600181016020830180613f7681613e85565b9050613f828184613f20565b505050600281016040830180613f9781613e85565b9050613fa38184613f20565b505050600381016060830180613fb881613e85565b9050613fc48184613f20565b5050505050565b613fd58282613f43565b5050565b600080fd5b600060808284031215613ff457613ff3613fd9565b5b613ffe60806135a4565b9050600061400e848285016130c4565b6000830152506020614022848285016130c4565b6020830152506040614036848285016130c4565b604083015250606061404a848285016130c4565b60608301525092915050565b60006080828403121561406c5761406b6130a3565b5b600061407a84828501613fde565b91505092915050565b60008190508160005260206000209050919050565b60006020601f8301049050919050565b600082821b905092915050565b6000600883026140e57fffffffffffffffffffffffffffffffffffffffffffffffffffffffffffffffff826140a8565b6140ef86836140a8565b95508019841693508086168417925050509392505050565b61411083613ef4565b61412461411c82613f16565b8484546140b5565b825550505050565b600090565b61413961412c565b614144818484614107565b505050565b5b818110156141685761415d600082614131565b60018101905061414a565b5050565b601f8211156141ad5761417e81614083565b61418784614098565b81016020851015614196578190505b6141aa6141a285614098565b830182614149565b50505b505050565b600082821c905092915050565b60006141d0600019846008026141b2565b1980831691505092915050565b60006141e983836141bf565b9150826002028217905092915050565b61420282612fe7565b67ffffffffffffffff81111561421b5761421a613544565b5b6142258254613ab8565b61423082828561416c565b600060209050601f8311600181146142635760008415614251578287015190505b61425b85826141dd565b8655506142c3565b601f19841661427186614083565b60005b8281101561429957848901518255600182019150602085019450602081019050614274565b868310156142b657848901516142b2601f8916826141bf565b8355505b6001600288020188555050505b505050505050565b600081519050919050565b600082825260208201905092915050565b6000819050602082019050919050565b600082825260208201905092915050565b600061431382612fe7565b61431d81856142f7565b935061432d818560208601613003565b6143368161302d565b840191505092915050565b600061434d8383614308565b905092915050565b6000602082019050919050565b600061436d826142cb565b61437781856142d6565b935083602082028501614389856142e7565b8060005b858110156143c557848403895281516143a68582614341565b94506143b183614355565b925060208a0199505060018101905061438d565b50829750879550505050505092915050565b600060208201905081810360008301526143f18184614362565b905092915050565b7f4e6f20756e6c6f636b20726571756573742070656e64696e6700000000000000600082015250565b600061442f601983612ff2565b915061443a826143f9565b602082019050919050565b6000602082019050818103600083015261445e81614422565b9050919050565b7f54696d656c6f636b206e6f742065787069726564000000000000000000000000600082015250565b600061449b601483612ff2565b91506144a682614465565b602082019050919050565b600060208201905081810360008301526144ca8161448e565b9050919050565b600081905092915050565b50565b60006144ec6000836144d1565b91506144f7826144dc565b600082019050919050565b600061450d826144df565b9150819050919050565b7f455448207472616e73666572206661696c656400000000000000000000000000600082015250565b600061454d601383612ff2565b915061455882614517565b602082019050919050565b6000602082019050818103600083015261457c81614540565b9050919050565b600060408201905061459860008301856133e9565b6145a56020830184612fbd565b9392505050565b7f496e76616c696420616464726573730000000000000000000000000000000000600082015250565b60006145e2600f83612ff2565b91506145ed826145ac565b602082019050919050565b60006020820190508181036000830152614611816145d5565b9050919050565b600060408201905061462d60008301856133e9565b61463a60208301846133e9565b9392505050565b7f496e76616c696420726563697069656e74000000000000000000000000000000600082015250565b6000614677601183612ff2565b915061468282614641565b602082019050919050565b600060208201905081810360008301526146a68161466a565b9050919050565b7f496e73756666696369656e74207369676e61747572657320666f7220706f6c6960008201527f6379000000000000000000000000000000000000000000000000000000000000602082015250565b6000614709602283612ff2565b9150614714826146ad565b604082019050919050565b60006020820190508181036000830152614738816146fc565b9050919050565b7f5769746864726177616c20636f6f6c646f776e20616374697665000000000000600082015250565b6000614775601a83612ff2565b91506147808261473f565b602082019050919050565b600060208201905081810360008301526147a481614768565b9050919050565b600060c0820190506147c06000830189613402565b6147cd60208301886133e9565b6147da6040830187612fbd565b6147e760608301866133e9565b6147f46080830185612fbd565b61480160a0830184613402565b979650505050505050565b7f5369676e6572206973206e6f74206120677561726469616e0000000000000000600082015250565b6000614842601883612ff2565b915061484d8261480c565b602082019050919050565b6000602082019050818103600083015261487181614835565b9050919050565b7f4475706c6963617465207369676e617475726500000000000000000000000000600082015250565b60006148ae601383612ff2565b91506148b982614878565b602082019050919050565b600060208201905081810360008301526148dd816148a1565b9050919050565b7f506f6c69637920617070726f76616c73206e6f74206d65740000000000000000600082015250565b600061491a601883612ff2565b9150614925826148e4565b602082019050919050565b600060208201905081810360008301526149498161490d565b9050919050565b7f496e73756666696369656e74204554482062616c616e63650000000000000000600082015250565b6000614986601883612ff2565b915061499182614950565b602082019050919050565b600060208201905081810360008301526149b581614979565b9050919050565b60006040820190506149d16000830185612fbd565b81810360208301526149e3818461303e565b90509392505050565b7f51756f72756d206d7573742062652067726561746572207468616e2030000000600082015250565b6000614a22601d83612ff2565b9150614a2d826149ec565b602082019050919050565b60006020820190508181036000830152614a5181614a15565b9050919050565b6000604082019050614a6d6000830185612fbd565b614a7a6020830184612fbd565b9392505050565b7f4e487b7100000000000000000000000000000000000000000000000000000000600052601260045260246000fd5b6000614abb82612fb3565b9150614ac683612fb3565b925082614ad657614ad5614a81565b5b828204905092915050565b7f4461696c79207769746864726177616c20636170206578636565646564000000600082015250565b6000614b17601d83612ff2565b9150614b2282614ae1565b602082019050919050565b60006020820190508181036000830152614b4681614b0a565b9050919050565b7f5765656b6c79207769746864726177616c206361702065786365656465640000600082015250565b6000614b83601e83612ff2565b9150614b8e82614b4d565b602082019050919050565b60006020820190508181036000830152614bb281614b76565b9050919050565b7f4d6f6e74686c79207769746864726177616c2063617020657863656564656400600082015250565b6000614bef601f83612ff2565b9150614bfa82614bb9565b602082019050919050565b60006020820190508181036000830152614c1e81614be2565b9050919050565b7f4e487b7100000000000000000000000000000000000000000000000000000000600052602160045260246000fd5b600060a082019050614c696000830188613402565b614c766020830187613402565b614c836040830186613402565b614c906060830185612fbd565b614c9d60808301846133e9565b9695505050505050565b600060ff82169050919050565b614cbd81614ca7565b82525050565b6000608082019050614cd86000830187613402565b614ce56020830186614cb4565b614cf26040830185613402565b614cff6060830184613402565b9594505050505056fea2646970667358221220136e218849cd097d6ecb1e2f8cd7f4f8f53ad8c4f7098e31be1dac9e0fcaabb364736f6c63430008140033",
  "linkReferences": {},
  "deployedLinkReferences": {}
}